:02000000902846
:10000800FF00030E8301BA000A08B9008A018C1C9C
:1000180011280130A00012118C1039088A003A0EFC
:080028008300FF0E7F0E0900AA
:0E0030008312031331088A0030088200080092
:10003E0018208A110A128000840AB00A0319B10A24
:08004E00F003031D1F28080048
:1000560083120313BB01831605148312AF01083004
:100066002F0203185528051839283628910112152C
:10007600051C3E283B2812111108283C031853285A
:100086002F08073CF0007008F1000130F0007108FD
:1000960003195128F00D7010FF3E4B287008BB0461
:0A00A600AF0A32283B08F000080002
:1000B000831603130510831205102130FC007630DF
:1000C000FD00FD0B6128FC0B6128000005140930C0
:1000D000FD00FD0B692800000000831605140800D0
:1000E00083120313A0019101121505187B28200823
:1000F000031D7B287528200803198028F0018F280C
:100100009101051C87282008031D872881282008C5
:1001100003198C28F0018F2812110130F00008001B
:1001200083120313A0015430A1006530A2006D308A
:10013000A3007030A4002030A5003D30A600203080
:10014000A7003030A8003030A9002E30AA0030308F
:10015000AB002030AC004330AD00AE018316860109
:1001600083128601213083168500073083129F0099
:100170008B170B1783168C14831292018C1091012C
:100180001030FB003930FC000D30FD00FD0BC6289F
:10019000FC0BC628FB0BC628000000000630FB0045
:1001A0001330FC00AD30FD00FD0BD428FC0BD4282F
:1001B000FB0BD42800000000582070207008031D9D
:1001C000E22816292B207008B2002B207008B400FA
:1001D0002B207008B3002B207008B7002B2070086C
:1001E000B80034083207F100F2010318F20A3308AC
:1001F000F1070318F20A3708F1070318F20AFF3073
:100200007105F3007208F4000030F4050030740644
:10021000031D0C2973087006031D1629DF30AC007E
:100220003208B500B601350886001629CE281729F0
:02400E006A3D09
:00000001FF
