:02000000D82DF9
:10000600710DF80DF90D7408F8027508031C750FCB
:10001600F902F00DF10D0F30FC00710DF80DF90D20
:100026007408701C1C28F8027508031C750FF90269
:100036002128F80775080318750FF907F00DF10D5B
:10004600FC0B102870182D287408F807750803187B
:08005600750FF9070000080016
:10005E00831603139818352800002F2883120317D0
:08006E001108031399000800BA
:0C00760000000000000000000000080076
:10008200043083120313FC003A30FD00FD0B4728B5
:08009200FC0B472800000800E8
:10009A00813083120313FD00FD0B5128000000007C
:0200AA0008004C
:0E00AC00533083120313FD00FD0B5A28080089
:1000BA00831203137408003A031D6C287508003A6A
:1000CA00031D6C28FF30F0007F30F100C528831231
:1000DA000313FD01F901F8017108700403190034D2
:1000EA0071087506FA00FA1BFD09FB01F51F822843
:1000FA00F409F509F40A0319F50AF11F8928F00928
:10010A00F109F00A0319F10A71087504FA00FA1BD9
:10011A009E2803207B18B128FD1F0034F009F1093D
:10012A00F00A0319F10AF809F909F80A0319F90A90
:10013A000034F51FAD28F11BA9287108F9007008D1
:10014A00F800F101F0019128F101F001F00A003400
:10015A00F109F009FB0A8E28F80A0319F90A74084A
:10016A007802031D912875087902031D9128F90167
:10017A00F801F00A0319F10AF11F91280000FF346F
:02018A0008006B
:10018C00831603136C08F1000130F0007108031999
:10019C00D328F00D7010FF3ECD287008EE00F0094A
:1001AC006B08840070088005841770088005412056
:1001BC0083166E08800484134D2083166E08000588
:1001CC00ED006D08003A013003190030ED004120BC
:0801DC0083166D08F000080015
:0E01E4008316031365088A0064088200080071
:1001F200831603136C08F1000130F0007108031933
:100202000629F00D7010FF3E0029700883120317B3
:100212009000700983160313EF006B088400EE014F
:10022200ED016D08073C031C3D296F08800584170A
:100232006F0880053B2083120317100880043B20BF
:10024200841310080005F0000319382983160313DC
:100252006D08F1000130F000710803193429F00D26
:100262007010FF3E2E29831603137008EE045620E9
:0E02720056208316ED0A12296E08F0000800CF
:10028000831603136C08F1000130F00071080319A4
:100290004D29F00D7010FF3E472970088312031797
:1002A0009000F009700883160313EF006B088400B8
:1002B000700880058417EE016E08073C031C7B293B
:1002C0006E08F0006D08F100700803196B29F10C3D
:1002D000F113FF3E65296F088005711C7329831295
:1002E0000317100880044D2003171008800483169C
:0E02F0000313EE0A5C298413562056200800E2
:1002FE00073083120313F00083166C08F1007008A8
:10030E0003198F29F10CF113711BF117FF3E872989
:10031E007108003A031DBC290430F1006B08F0008F
:10032E0071080319A029F00CF013701BF017FF3E93
:10033E0098290F307005F2000430F1006C08F000BF
:10034E0071080319AE29F00D7010FF3EA829F03088
:10035E00F005DB017208DB0070087204DB002B3045
:10036E008312BD000030BE00EA2983166B09F2002D
:10037E006C09F3000430F1007208F00071080319E3
:10038E00CE29F00CF013701BF017FF3EC6290F306C
:10039E007005F2000430F1007308F00071080319C3
:1003AE00DC29F00D7010FF3ED6298316F030F005D3
:1003BE00DB017208DB0070087204DB002D30831243
:0803CE00BD000030BE00080074
:1003D600831603136B08EC000030EC1BFF30ED00B6
:1003E6006430F4000030F5006C08F0006D08F10090
:1003F6005D207008BB007108BC0030307007BB0080
:1004060071080318013EBC006430F4000030F500AA
:1004160083166C08F0006D08F1005D207808F00086
:100426007908F10070088316EE007108EF000A30B3
:10043600F4000030F5006E08F0006F08F1005D2052
:100446007008B9007108BA0030307007B900710839
:100456000318013EBA000A30F4000030F500831696
:100466006E08F0006F08F1005D207808F00079084A
:10047600F1007008A4007108A50030307007A400D0
:0A04860071080318013EA5000800EC
:1004900041308312031791002F205430031791002D
:1004A0002F202B30031791002F2048300317910085
:1004B0002F205430031791002F2054300317910040
:1004C0002F205030031791002F2050300317910038
:1004D0002F204130031791002F2052300317910035
:1004E0002F204130031791002F203D30031791003A
:1004F0002F202230031791002F2055300317910031
:100500002F205230031791002F204C3003179100F9
:100510002F202230031791002F202C300317910039
:100520002F202230031791002F20683003179100ED
:100530002F207430031791002F207430031791007F
:100540002F207030031791002F203A3003179100AD
:100550002F202F30031791002F202F3003179100E9
:100560002F207730031791002F2077300317910049
:100570002F207730031791002F202E300317910082
:100580002F207230031791002F2075300317910030
:100590002F207030031791002F206F300317910028
:1005A0002F207330031791002F206830031791001C
:1005B0002F206930031791002F206230031791001C
:1005C0002F206130031791002F206E300317910008
:1005D0002F206730031791002F206C3003179100F4
:1005E0002F206130031791002F20743003179100E2
:1005F0002F206F30031791002F20753003179100C3
:100600002F207230031791002F20693003179100BB
:100610002F207330031791002F206D3003179100A6
:100620002F202E30031791002F20633003179100E5
:100630002F206F30031791002F206D30031791008A
:100640002F202F30031791002F20743003179100B3
:100650002F206530031791002F207330031791006E
:100660002F207430031791002F202F300317910093
:100670002F206830031791002F2069300317910055
:100680002F207430031791002F202E300317910074
:100690002F207030031791002F206830031791002E
:1006A0002F207030031791002F203F300317910047
:1006B0002F207630031791002F206130031791000F
:1006C0002F206C30031791002F2031300317910039
:1006D0002F203D30031791002F203D080317910074
:1006E0002F203B08031791002F2039080317910092
:1006F0002F202408031791002F2026300317910084
:100700002F207630031791002F20613003179100BE
:100710002F206C30031791002F20323003179100E7
:100720002F203D30031791002F2022300317910016
:100730002F200D30031791002F200A30031791004E
:040740002F2008005E
:1007440083160313ED016B0884000008EC006C08A9
:10075400003A0319BA2B6C088312031791002F2057
:100764008316ED0A6D086B0784000008EC00A92BC2
:0207740008007B
:10077600831603136608E7000030E71BFF30E80026
:100786006430F4000030F5006708F0006808F100F6
:100796005D2070088316DC007108DD0030307007BC
:1007A600DC0071080318013EDD006430F4000030FF
:1007B600F5006708F0006808F1005D207808F00091
:1007C6007908F10070088316E9007108EA000A301A
:1007D600F4000030F5006908F0006A08F1005D20B9
:1007E60070088316DE007108DF0030307007DE0007
:1007F60071080318013EDF000A30F4000030F500EE
:100806006908F0006A08F1005D207808F0007908B0
:10081600F10070088316E0007108E10030307007BF
:0C082600E00071080318013EE10008002A
:10083200083083160313EB000230EC00C6200830A8
:10084200EB000230EC00CC30ED0040210830831682
:10085200EB000230EC004430ED00402108308316FA
:10086200EB000230EC00C6200830EB000230EC0056
:10087200CC30ED00402108308316EB000230EC0052
:10088200BE30ED00402108308316EB000230EC0050
:10089200F9207008E3000830EB000230EC00F92088
:1008A2007008E2006308EB007008EC007F218316F9
:1008B2005B08EB00EB211A30FB005E30FC006E306F
:1008C200FD00FD0B622CFC0B622CFB0B622C00006A
:0208D20008001C
:1008D400343083160313EB00A2230D308312031765
:1008E40091002F200A30031791002F200D30FB00B8
:1008F400AF30FC00B630FD00FD0B7E2CFC0B7E2CD3
:10090400FB0B7E2C000026308316EB00A223223042
:100914008312031791002F20BE308316EB00A2230D
:1009240022308312031791002F202C3003179100DB
:100934002F202230031791002F206B308316EB00F9
:10094400A22322308312031791002F200D300317A6
:1009540091002F200A30031791002F200D30FB0047
:10096400AF30FC00B630FD00FD0BB62CFC0BB62CF2
:10097400FB0BB62C0000B0308316EB00A223223010
:100984008312031791002F20D7308316EB00A22384
:1009940022308312031791002F202C30031791006B
:1009A4002F202230031791002F20D3308316EB0021
:1009B400A22322308312031791002F200D30031736
:1009C40091002F200A30031791002F200D30FB00D7
:1009D400AF30FC00B630FD00FD0BEE2CFC0BEE2C12
:1009E400FB0BEE2C0000C6308316EB00A2230D3067
:1009F4008312031791002F200A30031791002F2030
:100A0400E530FB004930FC00F530FD00FD0B082DFE
:100A1400FC0B082DFB0B082D58308316EB00A2238A
:100A24000D308312031791002F200A300317910011
:100A34002F200D30FB00AF30FC00B630FD00FD0B65
:100A4400212DFC0B212DFB0B212D00004C30831696
:100A5400EB00A2230D308312031791002F200A30DC
:100A6400031791002F200D30FB00AF30FC00B6308F
:100A7400FD00FD0B3B2DFC0B3B2DFB0B3B2D000028
:100A84003F308316EB00A223223083120317910018
:100A94002F2067308316EB00A22322308312031722
:100AA40091002F202C30031791002F2065308316DE
:100AB400EB00A2230D308312031791002F200A307C
:100AC400031791002F201A30FB005E30FC006E30BB
:100AD400FD00FD0B6B2DFC0B6B2DFB0B6B2D000038
:100AE40048223330FB00BB30FC00DF30FD00FD0B3F
:100AF400792DFC0B792DFB0B792D00000000A03023
:100B04008316EB00A2230D308312031791002F20CC
:100B14000A30031791002F20E530FB004930FC0018
:100B2400F530FD00FD0B942DFC0B942DFB0B942D47
:020B34000800B7
:100B360030308316031366078312B700003083161E
:0E0B4600E61BFF308312B8000318B80A08003F
:100B54008312031388151A30FB005E30FC006E30DC
:100B6400FD00FD0BB32DFC0BB32DFB0BB32D0000CF
:040B740088110800DC
:100B7800F2208A110A128000840AE40A0319E50A9D
:080B8800F003031DBC2D080061
:100B900083160313981690308312980083168717D4
:100BA000071383128C1ED72D1A08F000D12D0800D0
:100BB000DE2681308316031399001815C8253330BB
:100BC000FB00BB30FC00DF30FD00FD0BE52DFC0B16
:100BD000E52DFB0BE52D0000000083168716831220
:100BE00087120130831686008312860183168811CE
:100BF00083128811AA2519241A30FB005E30FC00EC
:100C00006E30FD00FD0B022EFC0B022EFB0B022EA4
:100C100000000608A200A3011A30FB005E30FC00B1
:100C20006E30FD00FD0B122EFC0B122EFB0B122E54
:100C3000000022088316E600BB2300308312871AC7
:100C40000130A000A1011A30FB005E30FC006E30C4
:100C5000FD00FD0B292EFC0B292EFB0B292E00007D
:100C600020088316E6009B256A243330FB00BB3046
:100C7000FC00DF30FD00FD0B3B2EFC0B3B2EFB0B85
:080C80003B2E00000000432E92
:100DBC0020308400453083120313F0004930831631
:100DCC00E4000630E500BC25A03084001030F000B3
:100DDC00B4308316E4000630E500BC256530840091
:100DEC000630F000D2308316E4000630E500BC2556
:100DFC00B03084000E30F000C4308316E4000630AE
:100E0C00E500BC256B3084000530F000D83083162B
:100E1C00E4000630E500BC25BE3084002630F0002E
:0E0E2C008E308316E4000630E500BC25080079
:040C920000340034F6
:040C960000340034F2
:040C9A0000340034EE
:100C9E00413454342B34533441345034423452346E
:0C0CAE003D3433342C3431342C34003409
:060CBA0041345434003403
:040CC00000340034C8
:040CC40000340034C4
:040CC80000340034C0
:040CCC0000340034BC
:100CD000413454342B344834543454345034503424
:0A0CE0004134523441343D340034F5
:100CEA00413454342B344834543454345034493411
:080CFA004E3449345434003437
:100D0200413454342B345334413450344234523409
:0A0D12003D3432342C343134003407
:100D1C0043346F346E347434793470346534003445
:100D2C00413454342B3453344134503442345234DF
:0A0D3C003D3431342C3431340034DE
:080D460077346134703400348D
:080D4E00413450344E340034EE
:020D5600003467
:040D5800003400342F
:040D5C00003400342B
:040D60000034003427
:020D6400003459
:020D6600003457
:100D6800413454342B34483454345434503441349A
:100D78004334543449344F344E343D3431340034E0
:100D8800413454342B345334413450344234523483
:0C0D98003D3433342C3431342C3400341E
:040DA40031340034B2
:080DA8004334493444340034A3
:0A0DB00047345034523453340034F9
:02400E004A2F37
:00000001FF
